{
  "_format": "hh-sol-artifact-1",
  "contractName": "ICO",
  "sourceName": "contracts/ICO.sol",
  "abi": [
    {
      "inputs": [
        {
          "internalType": "string",
          "name": "name",
          "type": "string"
        },
        {
          "internalType": "string",
          "name": "symbol",
          "type": "string"
        },
        {
          "internalType": "uint256",
          "name": "_minPurchase",
          "type": "uint256"
        },
        {
          "internalType": "uint256",
          "name": "_maxPurchase",
          "type": "uint256"
        },
        {
          "internalType": "uint256",
          "name": "_rate",
          "type": "uint256"
        },
        {
          "internalType": "uint256",
          "name": "_softCap",
          "type": "uint256"
        },
        {
          "internalType": "uint256",
          "name": "_hardCap",
          "type": "uint256"
        },
        {
          "internalType": "uint256",
          "name": "_startTime",
          "type": "uint256"
        },
        {
          "internalType": "uint256",
          "name": "_endTime",
          "type": "uint256"
        }
      ],
      "stateMutability": "nonpayable",
      "type": "constructor"
    },
    {
      "anonymous": false,
      "inputs": [
        {
          "indexed": true,
          "internalType": "address",
          "name": "owner",
          "type": "address"
        },
        {
          "indexed": true,
          "internalType": "address",
          "name": "spender",
          "type": "address"
        },
        {
          "indexed": false,
          "internalType": "uint256",
          "name": "value",
          "type": "uint256"
        }
      ],
      "name": "Approval",
      "type": "event"
    },
    {
      "anonymous": false,
      "inputs": [
        {
          "indexed": true,
          "internalType": "address",
          "name": "previousOwner",
          "type": "address"
        },
        {
          "indexed": true,
          "internalType": "address",
          "name": "newOwner",
          "type": "address"
        }
      ],
      "name": "OwnershipTransferred",
      "type": "event"
    },
    {
      "anonymous": false,
      "inputs": [
        {
          "indexed": true,
          "internalType": "address",
          "name": "from",
          "type": "address"
        },
        {
          "indexed": true,
          "internalType": "address",
          "name": "to",
          "type": "address"
        },
        {
          "indexed": false,
          "internalType": "uint256",
          "name": "value",
          "type": "uint256"
        }
      ],
      "name": "Transfer",
      "type": "event"
    },
    {
      "inputs": [],
      "name": "active",
      "outputs": [
        {
          "internalType": "bool",
          "name": "",
          "type": "bool"
        }
      ],
      "stateMutability": "view",
      "type": "function"
    },
    {
      "inputs": [
        {
          "internalType": "address",
          "name": "owner",
          "type": "address"
        },
        {
          "internalType": "address",
          "name": "spender",
          "type": "address"
        }
      ],
      "name": "allowance",
      "outputs": [
        {
          "internalType": "uint256",
          "name": "",
          "type": "uint256"
        }
      ],
      "stateMutability": "view",
      "type": "function"
    },
    {
      "inputs": [
        {
          "internalType": "address",
          "name": "spender",
          "type": "address"
        },
        {
          "internalType": "uint256",
          "name": "amount",
          "type": "uint256"
        }
      ],
      "name": "approve",
      "outputs": [
        {
          "internalType": "bool",
          "name": "",
          "type": "bool"
        }
      ],
      "stateMutability": "nonpayable",
      "type": "function"
    },
    {
      "inputs": [
        {
          "internalType": "address",
          "name": "account",
          "type": "address"
        }
      ],
      "name": "balanceOf",
      "outputs": [
        {
          "internalType": "uint256",
          "name": "",
          "type": "uint256"
        }
      ],
      "stateMutability": "view",
      "type": "function"
    },
    {
      "inputs": [],
      "name": "claim",
      "outputs": [],
      "stateMutability": "nonpayable",
      "type": "function"
    },
    {
      "inputs": [],
      "name": "decimals",
      "outputs": [
        {
          "internalType": "uint8",
          "name": "",
          "type": "uint8"
        }
      ],
      "stateMutability": "view",
      "type": "function"
    },
    {
      "inputs": [
        {
          "internalType": "address",
          "name": "spender",
          "type": "address"
        },
        {
          "internalType": "uint256",
          "name": "subtractedValue",
          "type": "uint256"
        }
      ],
      "name": "decreaseAllowance",
      "outputs": [
        {
          "internalType": "bool",
          "name": "",
          "type": "bool"
        }
      ],
      "stateMutability": "nonpayable",
      "type": "function"
    },
    {
      "inputs": [],
      "name": "deposit",
      "outputs": [],
      "stateMutability": "payable",
      "type": "function"
    },
    {
      "inputs": [],
      "name": "endTime",
      "outputs": [
        {
          "internalType": "uint256",
          "name": "",
          "type": "uint256"
        }
      ],
      "stateMutability": "view",
      "type": "function"
    },
    {
      "inputs": [],
      "name": "hardCap",
      "outputs": [
        {
          "internalType": "uint256",
          "name": "",
          "type": "uint256"
        }
      ],
      "stateMutability": "view",
      "type": "function"
    },
    {
      "inputs": [
        {
          "internalType": "address",
          "name": "spender",
          "type": "address"
        },
        {
          "internalType": "uint256",
          "name": "addedValue",
          "type": "uint256"
        }
      ],
      "name": "increaseAllowance",
      "outputs": [
        {
          "internalType": "bool",
          "name": "",
          "type": "bool"
        }
      ],
      "stateMutability": "nonpayable",
      "type": "function"
    },
    {
      "inputs": [],
      "name": "maxPurchase",
      "outputs": [
        {
          "internalType": "uint256",
          "name": "",
          "type": "uint256"
        }
      ],
      "stateMutability": "view",
      "type": "function"
    },
    {
      "inputs": [],
      "name": "minPurchase",
      "outputs": [
        {
          "internalType": "uint256",
          "name": "",
          "type": "uint256"
        }
      ],
      "stateMutability": "view",
      "type": "function"
    },
    {
      "inputs": [],
      "name": "name",
      "outputs": [
        {
          "internalType": "string",
          "name": "",
          "type": "string"
        }
      ],
      "stateMutability": "view",
      "type": "function"
    },
    {
      "inputs": [],
      "name": "owner",
      "outputs": [
        {
          "internalType": "address",
          "name": "",
          "type": "address"
        }
      ],
      "stateMutability": "view",
      "type": "function"
    },
    {
      "inputs": [],
      "name": "rate",
      "outputs": [
        {
          "internalType": "uint256",
          "name": "",
          "type": "uint256"
        }
      ],
      "stateMutability": "view",
      "type": "function"
    },
    {
      "inputs": [],
      "name": "renounceOwnership",
      "outputs": [],
      "stateMutability": "nonpayable",
      "type": "function"
    },
    {
      "inputs": [],
      "name": "softCap",
      "outputs": [
        {
          "internalType": "uint256",
          "name": "",
          "type": "uint256"
        }
      ],
      "stateMutability": "view",
      "type": "function"
    },
    {
      "inputs": [],
      "name": "startTime",
      "outputs": [
        {
          "internalType": "uint256",
          "name": "",
          "type": "uint256"
        }
      ],
      "stateMutability": "view",
      "type": "function"
    },
    {
      "inputs": [],
      "name": "stopICO",
      "outputs": [],
      "stateMutability": "nonpayable",
      "type": "function"
    },
    {
      "inputs": [],
      "name": "symbol",
      "outputs": [
        {
          "internalType": "string",
          "name": "",
          "type": "string"
        }
      ],
      "stateMutability": "view",
      "type": "function"
    },
    {
      "inputs": [],
      "name": "totalSupply",
      "outputs": [
        {
          "internalType": "uint256",
          "name": "",
          "type": "uint256"
        }
      ],
      "stateMutability": "view",
      "type": "function"
    },
    {
      "inputs": [
        {
          "internalType": "address",
          "name": "to",
          "type": "address"
        },
        {
          "internalType": "uint256",
          "name": "amount",
          "type": "uint256"
        }
      ],
      "name": "transfer",
      "outputs": [
        {
          "internalType": "bool",
          "name": "",
          "type": "bool"
        }
      ],
      "stateMutability": "nonpayable",
      "type": "function"
    },
    {
      "inputs": [
        {
          "internalType": "address",
          "name": "from",
          "type": "address"
        },
        {
          "internalType": "address",
          "name": "to",
          "type": "address"
        },
        {
          "internalType": "uint256",
          "name": "amount",
          "type": "uint256"
        }
      ],
      "name": "transferFrom",
      "outputs": [
        {
          "internalType": "bool",
          "name": "",
          "type": "bool"
        }
      ],
      "stateMutability": "nonpayable",
      "type": "function"
    },
    {
      "inputs": [
        {
          "internalType": "address",
          "name": "newOwner",
          "type": "address"
        }
      ],
      "name": "transferOwnership",
      "outputs": [],
      "stateMutability": "nonpayable",
      "type": "function"
    },
    {
      "inputs": [],
      "name": "withdraw",
      "outputs": [],
      "stateMutability": "nonpayable",
      "type": "function"
    }
  ],
  "bytecode": "0x60806040523480156200001157600080fd5b50604051620016d9380380620016d983398101604081905262000034916200035a565b8851899089906200004d90600390602085019062000201565b5080516200006390600490602084019062000201565b505050620000806200007a620000ca60201b60201c565b620000ce565b6006879055600786905560088590556009849055600a839055600b829055600c819055600d805460ff19166001179055620000bb3362000120565b50505050505050505062000458565b3390565b600580546001600160a01b038381166001600160a01b0319831681179093556040519116919082907f8be0079c531659141344cd1fd0a4f28419497f9722a3daafe3b4186f6b6457e090600090a35050565b6200012a620001a3565b6001600160a01b038116620001955760405162461bcd60e51b815260206004820152602660248201527f4f776e61626c653a206e6577206f776e657220697320746865207a65726f206160448201526564647265737360d01b60648201526084015b60405180910390fd5b620001a081620000ce565b50565b6005546001600160a01b03163314620001ff5760405162461bcd60e51b815260206004820181905260248201527f4f776e61626c653a2063616c6c6572206973206e6f7420746865206f776e657260448201526064016200018c565b565b8280546200020f9062000405565b90600052602060002090601f0160209004810192826200023357600085556200027e565b82601f106200024e57805160ff19168380011785556200027e565b828001600101855582156200027e579182015b828111156200027e57825182559160200191906001019062000261565b506200028c92915062000290565b5090565b5b808211156200028c576000815560010162000291565b600082601f830112620002b8578081fd5b81516001600160401b0380821115620002d557620002d562000442565b604051601f8301601f19908116603f0116810190828211818310171562000300576200030062000442565b816040528381526020925086838588010111156200031c578485fd5b8491505b838210156200033f578582018301518183018401529082019062000320565b838211156200035057848385830101525b9695505050505050565b60008060008060008060008060006101208a8c03121562000379578485fd5b89516001600160401b038082111562000390578687fd5b6200039e8d838e01620002a7565b9a5060208c0151915080821115620003b4578687fd5b50620003c38c828d01620002a7565b98505060408a0151965060608a0151955060808a0151945060a08a0151935060c08a0151925060e08a015191506101008a015190509295985092959850929598565b600181811c908216806200041a57607f821691505b602082108114156200043c57634e487b7160e01b600052602260045260246000fd5b50919050565b634e487b7160e01b600052604160045260246000fd5b61127180620004686000396000f3fe6080604052600436106101815760003560e01c8063715018a6116100d1578063a457c2d71161008a578063d0e30db011610064578063d0e30db0146103ff578063dd62ed3e14610407578063f2fde38b14610427578063fb86a4041461044757600080fd5b8063a457c2d7146103aa578063a9059cbb146103ca578063c8e569a8146103ea57600080fd5b8063715018a61461031657806378e979251461032b5780638da5cb5b14610341578063906a26e01461036957806395d89b411461037f578063977b055b1461039457600080fd5b8063313ce5671161013e578063395093511161011857806339509351146102945780633ccfd60b146102b45780634e71d92d146102cb57806370a08231146102e057600080fd5b8063313ce5671461024c5780633197cbb61461026857806333b5b62e1461027e57600080fd5b806302fb0c5e1461018657806306fdde03146101b5578063095ea7b3146101d757806318160ddd146101f757806323b872dd146102165780632c4e722e14610236575b600080fd5b34801561019257600080fd5b50600d546101a09060ff1681565b60405190151581526020015b60405180910390f35b3480156101c157600080fd5b506101ca61045d565b6040516101ac9190611140565b3480156101e357600080fd5b506101a06101f2366004611117565b6104ef565b34801561020357600080fd5b506002545b6040519081526020016101ac565b34801561022257600080fd5b506101a06102313660046110dc565b610507565b34801561024257600080fd5b5061020860085481565b34801561025857600080fd5b50604051601281526020016101ac565b34801561027457600080fd5b50610208600c5481565b34801561028a57600080fd5b5061020860065481565b3480156102a057600080fd5b506101a06102af366004611117565b61052b565b3480156102c057600080fd5b506102c961054d565b005b3480156102d757600080fd5b506102c9610649565b3480156102ec57600080fd5b506102086102fb366004611089565b6001600160a01b031660009081526020819052604090205490565b34801561032257600080fd5b506102c961077c565b34801561033757600080fd5b50610208600b5481565b34801561034d57600080fd5b506005546040516001600160a01b0390911681526020016101ac565b34801561037557600080fd5b5061020860095481565b34801561038b57600080fd5b506101ca610790565b3480156103a057600080fd5b5061020860075481565b3480156103b657600080fd5b506101a06103c5366004611117565b61079f565b3480156103d657600080fd5b506101a06103e5366004611117565b61081a565b3480156103f657600080fd5b506102c9610828565b6102c961083c565b34801561041357600080fd5b506102086104223660046110aa565b6109f4565b34801561043357600080fd5b506102c9610442366004611089565b610a1f565b34801561045357600080fd5b50610208600a5481565b60606003805461046c906111ea565b80601f0160208091040260200160405190810160405280929190818152602001828054610498906111ea565b80156104e55780601f106104ba576101008083540402835291602001916104e5565b820191906000526020600020905b8154815290600101906020018083116104c857829003601f168201915b5050505050905090565b6000336104fd818585610a95565b5060019392505050565b600033610515858285610bba565b610520858585610c34565b506001949350505050565b6000336104fd81858561053e83836109f4565b6105489190611193565b610a95565b600d5460ff16156105b15760405162461bcd60e51b815260206004820152602360248201527f43616e6e6f74207769746864726177207768696c652049434f2069732061637460448201526269766560e81b60648201526084015b60405180910390fd5b6009544710156105fa5760405162461bcd60e51b815260206004820152601460248201527314dbd99d0818d85c081b9bdd081c995858da195960621b60448201526064016105a8565b4761060d6005546001600160a01b031690565b6001600160a01b03166108fc829081150290604051600060405180830381858888f19350505050158015610645573d6000803e3d6000fd5b5050565b600d5460ff161561069c5760405162461bcd60e51b815260206004820181905260248201527f43616e6e6f7420636c61696d207768696c652049434f2069732061637469766560448201526064016105a8565b6009544710156106e55760405162461bcd60e51b815260206004820152601460248201527314dbd99d0818d85c081b9bdd081c995858da195960621b60448201526064016105a8565b33600090815260208190526040902054806107375760405162461bcd60e51b81526020600482015260126024820152714e6f20746f6b656e7320746f20636c61696d60701b60448201526064016105a8565b6107413382610dd8565b60085433906108fc9061075490846111ab565b6040518115909202916000818181858888f19350505050158015610645573d6000803e3d6000fd5b610784610f02565b61078e6000610f5c565b565b60606004805461046c906111ea565b600033816107ad82866109f4565b90508381101561080d5760405162461bcd60e51b815260206004820152602560248201527f45524332303a2064656372656173656420616c6c6f77616e63652062656c6f77604482015264207a65726f60d81b60648201526084016105a8565b6105208286868403610a95565b6000336104fd818585610c34565b610830610f02565b600d805460ff19169055565b600d5460ff1661087f5760405162461bcd60e51b815260206004820152600e60248201526d49434f206e6f742061637469766560901b60448201526064016105a8565b600b544210156108d15760405162461bcd60e51b815260206004820152601760248201527f49434f20686173206e6f7420737461727465642079657400000000000000000060448201526064016105a8565b600c544211156109135760405162461bcd60e51b815260206004820152600d60248201526c1250d3c81a185cc8195b991959609a1b60448201526064016105a8565b60006008543461092391906111cb565b90506006548110156109865760405162461bcd60e51b815260206004820152602660248201527f416d6f756e742069732062656c6f77206d696e696d756d207075726368617365604482015265081b1a5b5a5d60d21b60648201526084016105a8565b6007548111156109e75760405162461bcd60e51b815260206004820152602660248201527f416d6f756e742069732061626f7665206d6178696d756d207075726368617365604482015265081b1a5b5a5d60d21b60648201526084016105a8565b6109f13382610fae565b50565b6001600160a01b03918216600090815260016020908152604080832093909416825291909152205490565b610a27610f02565b6001600160a01b038116610a8c5760405162461bcd60e51b815260206004820152602660248201527f4f776e61626c653a206e6577206f776e657220697320746865207a65726f206160448201526564647265737360d01b60648201526084016105a8565b6109f181610f5c565b6001600160a01b038316610af75760405162461bcd60e51b8152602060048201526024808201527f45524332303a20617070726f76652066726f6d20746865207a65726f206164646044820152637265737360e01b60648201526084016105a8565b6001600160a01b038216610b585760405162461bcd60e51b815260206004820152602260248201527f45524332303a20617070726f766520746f20746865207a65726f206164647265604482015261737360f01b60648201526084016105a8565b6001600160a01b0383811660008181526001602090815260408083209487168084529482529182902085905590518481527f8c5be1e5ebec7d5bd14f71427d1e84f3dd0314c0f7b2291e5b200ac8c7c3b92591015b60405180910390a3505050565b6000610bc684846109f4565b90506000198114610c2e5781811015610c215760405162461bcd60e51b815260206004820152601d60248201527f45524332303a20696e73756666696369656e7420616c6c6f77616e636500000060448201526064016105a8565b610c2e8484848403610a95565b50505050565b6001600160a01b038316610c985760405162461bcd60e51b815260206004820152602560248201527f45524332303a207472616e736665722066726f6d20746865207a65726f206164604482015264647265737360d81b60648201526084016105a8565b6001600160a01b038216610cfa5760405162461bcd60e51b815260206004820152602360248201527f45524332303a207472616e7366657220746f20746865207a65726f206164647260448201526265737360e81b60648201526084016105a8565b6001600160a01b03831660009081526020819052604090205481811015610d725760405162461bcd60e51b815260206004820152602660248201527f45524332303a207472616e7366657220616d6f756e7420657863656564732062604482015265616c616e636560d01b60648201526084016105a8565b6001600160a01b03848116600081815260208181526040808320878703905593871680835291849020805487019055925185815290927fddf252ad1be2c89b69c2b068fc378daa952ba7f163c4a11628f55a4df523b3ef910160405180910390a3610c2e565b6001600160a01b038216610e385760405162461bcd60e51b815260206004820152602160248201527f45524332303a206275726e2066726f6d20746865207a65726f206164647265736044820152607360f81b60648201526084016105a8565b6001600160a01b03821660009081526020819052604090205481811015610eac5760405162461bcd60e51b815260206004820152602260248201527f45524332303a206275726e20616d6f756e7420657863656564732062616c616e604482015261636560f01b60648201526084016105a8565b6001600160a01b0383166000818152602081815260408083208686039055600280548790039055518581529192917fddf252ad1be2c89b69c2b068fc378daa952ba7f163c4a11628f55a4df523b3ef9101610bad565b6005546001600160a01b0316331461078e5760405162461bcd60e51b815260206004820181905260248201527f4f776e61626c653a2063616c6c6572206973206e6f7420746865206f776e657260448201526064016105a8565b600580546001600160a01b038381166001600160a01b0319831681179093556040519116919082907f8be0079c531659141344cd1fd0a4f28419497f9722a3daafe3b4186f6b6457e090600090a35050565b6001600160a01b0382166110045760405162461bcd60e51b815260206004820152601f60248201527f45524332303a206d696e7420746f20746865207a65726f20616464726573730060448201526064016105a8565b80600260008282546110169190611193565b90915550506001600160a01b038216600081815260208181526040808320805486019055518481527fddf252ad1be2c89b69c2b068fc378daa952ba7f163c4a11628f55a4df523b3ef910160405180910390a35050565b80356001600160a01b038116811461108457600080fd5b919050565b60006020828403121561109a578081fd5b6110a38261106d565b9392505050565b600080604083850312156110bc578081fd5b6110c58361106d565b91506110d36020840161106d565b90509250929050565b6000806000606084860312156110f0578081fd5b6110f98461106d565b92506111076020850161106d565b9150604084013590509250925092565b60008060408385031215611129578182fd5b6111328361106d565b946020939093013593505050565b6000602080835283518082850152825b8181101561116c57858101830151858201604001528201611150565b8181111561117d5783604083870101525b50601f01601f1916929092016040019392505050565b600082198211156111a6576111a6611225565b500190565b6000826111c657634e487b7160e01b81526012600452602481fd5b500490565b60008160001904831182151516156111e5576111e5611225565b500290565b600181811c908216806111fe57607f821691505b6020821081141561121f57634e487b7160e01b600052602260045260246000fd5b50919050565b634e487b7160e01b600052601160045260246000fdfea264697066735822122089fdf1dd51f7d0ecfa23bb9f57be440dca8346949aa48df5a297103d64e4c09864736f6c63430008040033",
  "linkReferences": {},
  "deployedLinkReferences": {}
}