{
  "_format": "hh-sol-artifact-1",
  "contractName": "ICO",
  "sourceName": "contracts/ICO.sol",
  "abi": [
    {
      "inputs": [
        {
          "internalType": "string",
          "name": "name",
          "type": "string"
        },
        {
          "internalType": "string",
          "name": "symbol",
          "type": "string"
        },
        {
          "internalType": "uint256",
          "name": "_minPurchase",
          "type": "uint256"
        },
        {
          "internalType": "uint256",
          "name": "_maxPurchase",
          "type": "uint256"
        },
        {
          "internalType": "uint256",
          "name": "_rate",
          "type": "uint256"
        },
        {
          "internalType": "uint256",
          "name": "_softCap",
          "type": "uint256"
        },
        {
          "internalType": "uint256",
          "name": "_hardCap",
          "type": "uint256"
        },
        {
          "internalType": "uint256",
          "name": "_startTime",
          "type": "uint256"
        },
        {
          "internalType": "uint256",
          "name": "_endTime",
          "type": "uint256"
        }
      ],
      "stateMutability": "nonpayable",
      "type": "constructor"
    },
    {
      "anonymous": false,
      "inputs": [
        {
          "indexed": true,
          "internalType": "address",
          "name": "owner",
          "type": "address"
        },
        {
          "indexed": true,
          "internalType": "address",
          "name": "spender",
          "type": "address"
        },
        {
          "indexed": false,
          "internalType": "uint256",
          "name": "value",
          "type": "uint256"
        }
      ],
      "name": "Approval",
      "type": "event"
    },
    {
      "anonymous": false,
      "inputs": [
        {
          "indexed": true,
          "internalType": "address",
          "name": "previousOwner",
          "type": "address"
        },
        {
          "indexed": true,
          "internalType": "address",
          "name": "newOwner",
          "type": "address"
        }
      ],
      "name": "OwnershipTransferred",
      "type": "event"
    },
    {
      "anonymous": false,
      "inputs": [
        {
          "indexed": true,
          "internalType": "address",
          "name": "from",
          "type": "address"
        },
        {
          "indexed": true,
          "internalType": "address",
          "name": "to",
          "type": "address"
        },
        {
          "indexed": false,
          "internalType": "uint256",
          "name": "value",
          "type": "uint256"
        }
      ],
      "name": "Transfer",
      "type": "event"
    },
    {
      "inputs": [
        {
          "internalType": "address",
          "name": "owner",
          "type": "address"
        },
        {
          "internalType": "address",
          "name": "spender",
          "type": "address"
        }
      ],
      "name": "allowance",
      "outputs": [
        {
          "internalType": "uint256",
          "name": "",
          "type": "uint256"
        }
      ],
      "stateMutability": "view",
      "type": "function"
    },
    {
      "inputs": [
        {
          "internalType": "address",
          "name": "spender",
          "type": "address"
        },
        {
          "internalType": "uint256",
          "name": "amount",
          "type": "uint256"
        }
      ],
      "name": "approve",
      "outputs": [
        {
          "internalType": "bool",
          "name": "",
          "type": "bool"
        }
      ],
      "stateMutability": "nonpayable",
      "type": "function"
    },
    {
      "inputs": [
        {
          "internalType": "address",
          "name": "account",
          "type": "address"
        }
      ],
      "name": "balanceOf",
      "outputs": [
        {
          "internalType": "uint256",
          "name": "",
          "type": "uint256"
        }
      ],
      "stateMutability": "view",
      "type": "function"
    },
    {
      "inputs": [],
      "name": "claim",
      "outputs": [],
      "stateMutability": "nonpayable",
      "type": "function"
    },
    {
      "inputs": [],
      "name": "decimals",
      "outputs": [
        {
          "internalType": "uint8",
          "name": "",
          "type": "uint8"
        }
      ],
      "stateMutability": "view",
      "type": "function"
    },
    {
      "inputs": [
        {
          "internalType": "address",
          "name": "spender",
          "type": "address"
        },
        {
          "internalType": "uint256",
          "name": "subtractedValue",
          "type": "uint256"
        }
      ],
      "name": "decreaseAllowance",
      "outputs": [
        {
          "internalType": "bool",
          "name": "",
          "type": "bool"
        }
      ],
      "stateMutability": "nonpayable",
      "type": "function"
    },
    {
      "inputs": [],
      "name": "deposit",
      "outputs": [],
      "stateMutability": "payable",
      "type": "function"
    },
    {
      "inputs": [],
      "name": "depositAmount",
      "outputs": [
        {
          "internalType": "uint256",
          "name": "",
          "type": "uint256"
        }
      ],
      "stateMutability": "view",
      "type": "function"
    },
    {
      "inputs": [],
      "name": "endTime",
      "outputs": [
        {
          "internalType": "uint256",
          "name": "",
          "type": "uint256"
        }
      ],
      "stateMutability": "view",
      "type": "function"
    },
    {
      "inputs": [],
      "name": "hardCap",
      "outputs": [
        {
          "internalType": "uint256",
          "name": "",
          "type": "uint256"
        }
      ],
      "stateMutability": "view",
      "type": "function"
    },
    {
      "inputs": [
        {
          "internalType": "address",
          "name": "spender",
          "type": "address"
        },
        {
          "internalType": "uint256",
          "name": "addedValue",
          "type": "uint256"
        }
      ],
      "name": "increaseAllowance",
      "outputs": [
        {
          "internalType": "bool",
          "name": "",
          "type": "bool"
        }
      ],
      "stateMutability": "nonpayable",
      "type": "function"
    },
    {
      "inputs": [],
      "name": "maxPurchase",
      "outputs": [
        {
          "internalType": "uint256",
          "name": "",
          "type": "uint256"
        }
      ],
      "stateMutability": "view",
      "type": "function"
    },
    {
      "inputs": [],
      "name": "minPurchase",
      "outputs": [
        {
          "internalType": "uint256",
          "name": "",
          "type": "uint256"
        }
      ],
      "stateMutability": "view",
      "type": "function"
    },
    {
      "inputs": [],
      "name": "name",
      "outputs": [
        {
          "internalType": "string",
          "name": "",
          "type": "string"
        }
      ],
      "stateMutability": "view",
      "type": "function"
    },
    {
      "inputs": [],
      "name": "owner",
      "outputs": [
        {
          "internalType": "address",
          "name": "",
          "type": "address"
        }
      ],
      "stateMutability": "view",
      "type": "function"
    },
    {
      "inputs": [],
      "name": "rate",
      "outputs": [
        {
          "internalType": "uint256",
          "name": "",
          "type": "uint256"
        }
      ],
      "stateMutability": "view",
      "type": "function"
    },
    {
      "inputs": [],
      "name": "renounceOwnership",
      "outputs": [],
      "stateMutability": "nonpayable",
      "type": "function"
    },
    {
      "inputs": [],
      "name": "softCap",
      "outputs": [
        {
          "internalType": "uint256",
          "name": "",
          "type": "uint256"
        }
      ],
      "stateMutability": "view",
      "type": "function"
    },
    {
      "inputs": [],
      "name": "startTime",
      "outputs": [
        {
          "internalType": "uint256",
          "name": "",
          "type": "uint256"
        }
      ],
      "stateMutability": "view",
      "type": "function"
    },
    {
      "inputs": [],
      "name": "symbol",
      "outputs": [
        {
          "internalType": "string",
          "name": "",
          "type": "string"
        }
      ],
      "stateMutability": "view",
      "type": "function"
    },
    {
      "inputs": [],
      "name": "totalSupply",
      "outputs": [
        {
          "internalType": "uint256",
          "name": "",
          "type": "uint256"
        }
      ],
      "stateMutability": "view",
      "type": "function"
    },
    {
      "inputs": [
        {
          "internalType": "address",
          "name": "to",
          "type": "address"
        },
        {
          "internalType": "uint256",
          "name": "amount",
          "type": "uint256"
        }
      ],
      "name": "transfer",
      "outputs": [
        {
          "internalType": "bool",
          "name": "",
          "type": "bool"
        }
      ],
      "stateMutability": "nonpayable",
      "type": "function"
    },
    {
      "inputs": [
        {
          "internalType": "address",
          "name": "from",
          "type": "address"
        },
        {
          "internalType": "address",
          "name": "to",
          "type": "address"
        },
        {
          "internalType": "uint256",
          "name": "amount",
          "type": "uint256"
        }
      ],
      "name": "transferFrom",
      "outputs": [
        {
          "internalType": "bool",
          "name": "",
          "type": "bool"
        }
      ],
      "stateMutability": "nonpayable",
      "type": "function"
    },
    {
      "inputs": [
        {
          "internalType": "address",
          "name": "newOwner",
          "type": "address"
        }
      ],
      "name": "transferOwnership",
      "outputs": [],
      "stateMutability": "nonpayable",
      "type": "function"
    },
    {
      "inputs": [],
      "name": "withdraw",
      "outputs": [],
      "stateMutability": "nonpayable",
      "type": "function"
    }
  ],
  "bytecode": "0x60806040523480156200001157600080fd5b50604051620015ae380380620015ae83398101604081905262000034916200034d565b8851899089906200004d906003906020850190620001f4565b50805162000063906004906020840190620001f4565b505050620000806200007a620000bd60201b60201c565b620000c1565b6006879055600786905560088590556009849055600a839055600b829055600c819055620000ae3362000113565b5050505050505050506200044b565b3390565b600580546001600160a01b038381166001600160a01b0319831681179093556040519116919082907f8be0079c531659141344cd1fd0a4f28419497f9722a3daafe3b4186f6b6457e090600090a35050565b6200011d62000196565b6001600160a01b038116620001885760405162461bcd60e51b815260206004820152602660248201527f4f776e61626c653a206e6577206f776e657220697320746865207a65726f206160448201526564647265737360d01b60648201526084015b60405180910390fd5b6200019381620000c1565b50565b6005546001600160a01b03163314620001f25760405162461bcd60e51b815260206004820181905260248201527f4f776e61626c653a2063616c6c6572206973206e6f7420746865206f776e657260448201526064016200017f565b565b8280546200020290620003f8565b90600052602060002090601f01602090048101928262000226576000855562000271565b82601f106200024157805160ff191683800117855562000271565b8280016001018555821562000271579182015b828111156200027157825182559160200191906001019062000254565b506200027f92915062000283565b5090565b5b808211156200027f576000815560010162000284565b600082601f830112620002ab578081fd5b81516001600160401b0380821115620002c857620002c862000435565b604051601f8301601f19908116603f01168101908282118183101715620002f357620002f362000435565b816040528381526020925086838588010111156200030f578485fd5b8491505b8382101562000332578582018301518183018401529082019062000313565b838211156200034357848385830101525b9695505050505050565b60008060008060008060008060006101208a8c0312156200036c578485fd5b89516001600160401b038082111562000383578687fd5b620003918d838e016200029a565b9a5060208c0151915080821115620003a7578687fd5b50620003b68c828d016200029a565b98505060408a0151965060608a0151955060808a0151945060a08a0151935060c08a0151925060e08a015191506101008a015190509295985092959850929598565b600181811c908216806200040d57607f821691505b602082108114156200042f57634e487b7160e01b600052602260045260246000fd5b50919050565b634e487b7160e01b600052604160045260246000fd5b611153806200045b6000396000f3fe6080604052600436106101665760003560e01c806370a08231116100d1578063977b055b1161008a578063d0e30db011610064578063d0e30db0146103cf578063dd62ed3e146103d7578063f2fde38b146103f7578063fb86a4041461041757600080fd5b8063977b055b14610379578063a457c2d71461038f578063a9059cbb146103af57600080fd5b806370a08231146102c5578063715018a6146102fb57806378e97925146103105780638da5cb5b14610326578063906a26e01461034e57806395d89b411461036457600080fd5b80633197cbb6116101235780633197cbb61461023757806333b5b62e1461024d57806339509351146102635780633ccfd60b14610283578063419759f51461029a5780634e71d92d146102b057600080fd5b806306fdde031461016b578063095ea7b31461019657806318160ddd146101c657806323b872dd146101e55780632c4e722e14610205578063313ce5671461021b575b600080fd5b34801561017757600080fd5b5061018061042d565b60405161018d919061102a565b60405180910390f35b3480156101a257600080fd5b506101b66101b1366004611001565b6104bf565b604051901515815260200161018d565b3480156101d257600080fd5b506002545b60405190815260200161018d565b3480156101f157600080fd5b506101b6610200366004610fc6565b6104d7565b34801561021157600080fd5b506101d760085481565b34801561022757600080fd5b506040516012815260200161018d565b34801561024357600080fd5b506101d7600c5481565b34801561025957600080fd5b506101d760065481565b34801561026f57600080fd5b506101b661027e366004611001565b6104fb565b34801561028f57600080fd5b5061029861051d565b005b3480156102a657600080fd5b506101d7600d5481565b3480156102bc57600080fd5b506102986105c5565b3480156102d157600080fd5b506101d76102e0366004610f73565b6001600160a01b031660009081526020819052604090205490565b34801561030757600080fd5b506102986106a5565b34801561031c57600080fd5b506101d7600b5481565b34801561033257600080fd5b506005546040516001600160a01b03909116815260200161018d565b34801561035a57600080fd5b506101d760095481565b34801561037057600080fd5b506101806106b9565b34801561038557600080fd5b506101d760075481565b34801561039b57600080fd5b506101b66103aa366004611001565b6106c8565b3480156103bb57600080fd5b506101b66103ca366004611001565b610743565b610298610751565b3480156103e357600080fd5b506101d76103f2366004610f94565b6108de565b34801561040357600080fd5b50610298610412366004610f73565b610909565b34801561042357600080fd5b506101d7600a5481565b60606003805461043c906110cc565b80601f0160208091040260200160405190810160405280929190818152602001828054610468906110cc565b80156104b55780601f1061048a576101008083540402835291602001916104b5565b820191906000526020600020905b81548152906001019060200180831161049857829003601f168201915b5050505050905090565b6000336104cd81858561097f565b5060019392505050565b6000336104e5858285610aa4565b6104f0858585610b1e565b506001949350505050565b6000336104cd81858561050e83836108de565b610518919061107d565b61097f565b60095447101561056b5760405162461bcd60e51b815260206004820152601460248201527314dbd99d0818d85c081b9bdd081c995858da195960621b60448201526064015b60405180910390fd5b600047905080600d600082825461058291906110b5565b90915550506005546040516001600160a01b039091169082156108fc029083906000818181858888f193505050501580156105c1573d6000803e3d6000fd5b5050565b60095447101561060e5760405162461bcd60e51b815260206004820152601460248201527314dbd99d0818d85c081b9bdd081c995858da195960621b6044820152606401610562565b33600090815260208190526040902054806106605760405162461bcd60e51b81526020600482015260126024820152714e6f20746f6b656e7320746f20636c61696d60701b6044820152606401610562565b61066a3382610cc2565b60085433906108fc9061067d9084611095565b6040518115909202916000818181858888f193505050501580156105c1573d6000803e3d6000fd5b6106ad610dec565b6106b76000610e46565b565b60606004805461043c906110cc565b600033816106d682866108de565b9050838110156107365760405162461bcd60e51b815260206004820152602560248201527f45524332303a2064656372656173656420616c6c6f77616e63652062656c6f77604482015264207a65726f60d81b6064820152608401610562565b6104f0828686840361097f565b6000336104cd818585610b1e565b600b544210156107a35760405162461bcd60e51b815260206004820152601760248201527f49434f20686173206e6f742073746172746564207965740000000000000000006044820152606401610562565b600c544211156107e55760405162461bcd60e51b815260206004820152600d60248201526c1250d3c81a185cc8195b991959609a1b6044820152606401610562565b6000600854346107f59190611095565b90506006548110156108585760405162461bcd60e51b815260206004820152602660248201527f416d6f756e742069732062656c6f77206d696e696d756d207075726368617365604482015265081b1a5b5a5d60d21b6064820152608401610562565b6007548111156108b95760405162461bcd60e51b815260206004820152602660248201527f416d6f756e742069732061626f7665206d6178696d756d207075726368617365604482015265081b1a5b5a5d60d21b6064820152608401610562565b80600d60008282546108cb919061107d565b909155506108db90503382610e98565b50565b6001600160a01b03918216600090815260016020908152604080832093909416825291909152205490565b610911610dec565b6001600160a01b0381166109765760405162461bcd60e51b815260206004820152602660248201527f4f776e61626c653a206e6577206f776e657220697320746865207a65726f206160448201526564647265737360d01b6064820152608401610562565b6108db81610e46565b6001600160a01b0383166109e15760405162461bcd60e51b8152602060048201526024808201527f45524332303a20617070726f76652066726f6d20746865207a65726f206164646044820152637265737360e01b6064820152608401610562565b6001600160a01b038216610a425760405162461bcd60e51b815260206004820152602260248201527f45524332303a20617070726f766520746f20746865207a65726f206164647265604482015261737360f01b6064820152608401610562565b6001600160a01b0383811660008181526001602090815260408083209487168084529482529182902085905590518481527f8c5be1e5ebec7d5bd14f71427d1e84f3dd0314c0f7b2291e5b200ac8c7c3b92591015b60405180910390a3505050565b6000610ab084846108de565b90506000198114610b185781811015610b0b5760405162461bcd60e51b815260206004820152601d60248201527f45524332303a20696e73756666696369656e7420616c6c6f77616e63650000006044820152606401610562565b610b18848484840361097f565b50505050565b6001600160a01b038316610b825760405162461bcd60e51b815260206004820152602560248201527f45524332303a207472616e736665722066726f6d20746865207a65726f206164604482015264647265737360d81b6064820152608401610562565b6001600160a01b038216610be45760405162461bcd60e51b815260206004820152602360248201527f45524332303a207472616e7366657220746f20746865207a65726f206164647260448201526265737360e81b6064820152608401610562565b6001600160a01b03831660009081526020819052604090205481811015610c5c5760405162461bcd60e51b815260206004820152602660248201527f45524332303a207472616e7366657220616d6f756e7420657863656564732062604482015265616c616e636560d01b6064820152608401610562565b6001600160a01b03848116600081815260208181526040808320878703905593871680835291849020805487019055925185815290927fddf252ad1be2c89b69c2b068fc378daa952ba7f163c4a11628f55a4df523b3ef910160405180910390a3610b18565b6001600160a01b038216610d225760405162461bcd60e51b815260206004820152602160248201527f45524332303a206275726e2066726f6d20746865207a65726f206164647265736044820152607360f81b6064820152608401610562565b6001600160a01b03821660009081526020819052604090205481811015610d965760405162461bcd60e51b815260206004820152602260248201527f45524332303a206275726e20616d6f756e7420657863656564732062616c616e604482015261636560f01b6064820152608401610562565b6001600160a01b0383166000818152602081815260408083208686039055600280548790039055518581529192917fddf252ad1be2c89b69c2b068fc378daa952ba7f163c4a11628f55a4df523b3ef9101610a97565b6005546001600160a01b031633146106b75760405162461bcd60e51b815260206004820181905260248201527f4f776e61626c653a2063616c6c6572206973206e6f7420746865206f776e65726044820152606401610562565b600580546001600160a01b038381166001600160a01b0319831681179093556040519116919082907f8be0079c531659141344cd1fd0a4f28419497f9722a3daafe3b4186f6b6457e090600090a35050565b6001600160a01b038216610eee5760405162461bcd60e51b815260206004820152601f60248201527f45524332303a206d696e7420746f20746865207a65726f2061646472657373006044820152606401610562565b8060026000828254610f00919061107d565b90915550506001600160a01b038216600081815260208181526040808320805486019055518481527fddf252ad1be2c89b69c2b068fc378daa952ba7f163c4a11628f55a4df523b3ef910160405180910390a35050565b80356001600160a01b0381168114610f6e57600080fd5b919050565b600060208284031215610f84578081fd5b610f8d82610f57565b9392505050565b60008060408385031215610fa6578081fd5b610faf83610f57565b9150610fbd60208401610f57565b90509250929050565b600080600060608486031215610fda578081fd5b610fe384610f57565b9250610ff160208501610f57565b9150604084013590509250925092565b60008060408385031215611013578182fd5b61101c83610f57565b946020939093013593505050565b6000602080835283518082850152825b818110156110565785810183015185820160400152820161103a565b818111156110675783604083870101525b50601f01601f1916929092016040019392505050565b6000821982111561109057611090611107565b500190565b6000826110b057634e487b7160e01b81526012600452602481fd5b500490565b6000828210156110c7576110c7611107565b500390565b600181811c908216806110e057607f821691505b6020821081141561110157634e487b7160e01b600052602260045260246000fd5b50919050565b634e487b7160e01b600052601160045260246000fdfea2646970667358221220a618712a54c760f3aa8ad6233a57a5df49a4cacc442843ecd822ae654fd9cd3f64736f6c63430008040033",
  "linkReferences": {},
  "deployedLinkReferences": {}
}