{
  "_format": "hh-sol-artifact-1",
  "contractName": "ICO",
  "sourceName": "contracts/ICO.sol",
  "abi": [
    {
      "inputs": [
        {
          "internalType": "string",
          "name": "name",
          "type": "string"
        },
        {
          "internalType": "string",
          "name": "symbol",
          "type": "string"
        },
        {
          "internalType": "uint256",
          "name": "_minPurchase",
          "type": "uint256"
        },
        {
          "internalType": "uint256",
          "name": "_maxPurchase",
          "type": "uint256"
        },
        {
          "internalType": "uint256",
          "name": "_rate",
          "type": "uint256"
        },
        {
          "internalType": "uint256",
          "name": "_softCap",
          "type": "uint256"
        },
        {
          "internalType": "uint256",
          "name": "_hardCap",
          "type": "uint256"
        },
        {
          "internalType": "uint256",
          "name": "_startTime",
          "type": "uint256"
        },
        {
          "internalType": "uint256",
          "name": "_endTime",
          "type": "uint256"
        }
      ],
      "stateMutability": "nonpayable",
      "type": "constructor"
    },
    {
      "anonymous": false,
      "inputs": [
        {
          "indexed": true,
          "internalType": "address",
          "name": "owner",
          "type": "address"
        },
        {
          "indexed": true,
          "internalType": "address",
          "name": "spender",
          "type": "address"
        },
        {
          "indexed": false,
          "internalType": "uint256",
          "name": "value",
          "type": "uint256"
        }
      ],
      "name": "Approval",
      "type": "event"
    },
    {
      "anonymous": false,
      "inputs": [
        {
          "indexed": true,
          "internalType": "address",
          "name": "previousOwner",
          "type": "address"
        },
        {
          "indexed": true,
          "internalType": "address",
          "name": "newOwner",
          "type": "address"
        }
      ],
      "name": "OwnershipTransferred",
      "type": "event"
    },
    {
      "anonymous": false,
      "inputs": [
        {
          "indexed": true,
          "internalType": "address",
          "name": "from",
          "type": "address"
        },
        {
          "indexed": true,
          "internalType": "address",
          "name": "to",
          "type": "address"
        },
        {
          "indexed": false,
          "internalType": "uint256",
          "name": "value",
          "type": "uint256"
        }
      ],
      "name": "Transfer",
      "type": "event"
    },
    {
      "inputs": [],
      "name": "ICOState",
      "outputs": [
        {
          "internalType": "enum ICO.State",
          "name": "",
          "type": "uint8"
        }
      ],
      "stateMutability": "view",
      "type": "function"
    },
    {
      "inputs": [],
      "name": "active",
      "outputs": [
        {
          "internalType": "bool",
          "name": "",
          "type": "bool"
        }
      ],
      "stateMutability": "view",
      "type": "function"
    },
    {
      "inputs": [
        {
          "internalType": "address",
          "name": "owner",
          "type": "address"
        },
        {
          "internalType": "address",
          "name": "spender",
          "type": "address"
        }
      ],
      "name": "allowance",
      "outputs": [
        {
          "internalType": "uint256",
          "name": "",
          "type": "uint256"
        }
      ],
      "stateMutability": "view",
      "type": "function"
    },
    {
      "inputs": [
        {
          "internalType": "address",
          "name": "spender",
          "type": "address"
        },
        {
          "internalType": "uint256",
          "name": "amount",
          "type": "uint256"
        }
      ],
      "name": "approve",
      "outputs": [
        {
          "internalType": "bool",
          "name": "",
          "type": "bool"
        }
      ],
      "stateMutability": "nonpayable",
      "type": "function"
    },
    {
      "inputs": [
        {
          "internalType": "address",
          "name": "account",
          "type": "address"
        }
      ],
      "name": "balanceOf",
      "outputs": [
        {
          "internalType": "uint256",
          "name": "",
          "type": "uint256"
        }
      ],
      "stateMutability": "view",
      "type": "function"
    },
    {
      "inputs": [],
      "name": "claim",
      "outputs": [],
      "stateMutability": "nonpayable",
      "type": "function"
    },
    {
      "inputs": [],
      "name": "decimals",
      "outputs": [
        {
          "internalType": "uint8",
          "name": "",
          "type": "uint8"
        }
      ],
      "stateMutability": "view",
      "type": "function"
    },
    {
      "inputs": [
        {
          "internalType": "address",
          "name": "spender",
          "type": "address"
        },
        {
          "internalType": "uint256",
          "name": "subtractedValue",
          "type": "uint256"
        }
      ],
      "name": "decreaseAllowance",
      "outputs": [
        {
          "internalType": "bool",
          "name": "",
          "type": "bool"
        }
      ],
      "stateMutability": "nonpayable",
      "type": "function"
    },
    {
      "inputs": [],
      "name": "deposit",
      "outputs": [],
      "stateMutability": "payable",
      "type": "function"
    },
    {
      "inputs": [],
      "name": "depositAmount",
      "outputs": [
        {
          "internalType": "uint256",
          "name": "",
          "type": "uint256"
        }
      ],
      "stateMutability": "view",
      "type": "function"
    },
    {
      "inputs": [],
      "name": "endTime",
      "outputs": [
        {
          "internalType": "uint256",
          "name": "",
          "type": "uint256"
        }
      ],
      "stateMutability": "view",
      "type": "function"
    },
    {
      "inputs": [],
      "name": "getICODate",
      "outputs": [
        {
          "internalType": "uint256",
          "name": "",
          "type": "uint256"
        }
      ],
      "stateMutability": "view",
      "type": "function"
    },
    {
      "inputs": [],
      "name": "getICOState",
      "outputs": [
        {
          "internalType": "string",
          "name": "",
          "type": "string"
        }
      ],
      "stateMutability": "view",
      "type": "function"
    },
    {
      "inputs": [],
      "name": "hardCap",
      "outputs": [
        {
          "internalType": "uint256",
          "name": "",
          "type": "uint256"
        }
      ],
      "stateMutability": "view",
      "type": "function"
    },
    {
      "inputs": [
        {
          "internalType": "address",
          "name": "spender",
          "type": "address"
        },
        {
          "internalType": "uint256",
          "name": "addedValue",
          "type": "uint256"
        }
      ],
      "name": "increaseAllowance",
      "outputs": [
        {
          "internalType": "bool",
          "name": "",
          "type": "bool"
        }
      ],
      "stateMutability": "nonpayable",
      "type": "function"
    },
    {
      "inputs": [],
      "name": "maxPurchase",
      "outputs": [
        {
          "internalType": "uint256",
          "name": "",
          "type": "uint256"
        }
      ],
      "stateMutability": "view",
      "type": "function"
    },
    {
      "inputs": [],
      "name": "minPurchase",
      "outputs": [
        {
          "internalType": "uint256",
          "name": "",
          "type": "uint256"
        }
      ],
      "stateMutability": "view",
      "type": "function"
    },
    {
      "inputs": [],
      "name": "name",
      "outputs": [
        {
          "internalType": "string",
          "name": "",
          "type": "string"
        }
      ],
      "stateMutability": "view",
      "type": "function"
    },
    {
      "inputs": [],
      "name": "owner",
      "outputs": [
        {
          "internalType": "address",
          "name": "",
          "type": "address"
        }
      ],
      "stateMutability": "view",
      "type": "function"
    },
    {
      "inputs": [],
      "name": "rate",
      "outputs": [
        {
          "internalType": "uint256",
          "name": "",
          "type": "uint256"
        }
      ],
      "stateMutability": "view",
      "type": "function"
    },
    {
      "inputs": [],
      "name": "renounceOwnership",
      "outputs": [],
      "stateMutability": "nonpayable",
      "type": "function"
    },
    {
      "inputs": [],
      "name": "softCap",
      "outputs": [
        {
          "internalType": "uint256",
          "name": "",
          "type": "uint256"
        }
      ],
      "stateMutability": "view",
      "type": "function"
    },
    {
      "inputs": [],
      "name": "startTime",
      "outputs": [
        {
          "internalType": "uint256",
          "name": "",
          "type": "uint256"
        }
      ],
      "stateMutability": "view",
      "type": "function"
    },
    {
      "inputs": [],
      "name": "stopICO",
      "outputs": [],
      "stateMutability": "nonpayable",
      "type": "function"
    },
    {
      "inputs": [],
      "name": "symbol",
      "outputs": [
        {
          "internalType": "string",
          "name": "",
          "type": "string"
        }
      ],
      "stateMutability": "view",
      "type": "function"
    },
    {
      "inputs": [],
      "name": "totalSupply",
      "outputs": [
        {
          "internalType": "uint256",
          "name": "",
          "type": "uint256"
        }
      ],
      "stateMutability": "view",
      "type": "function"
    },
    {
      "inputs": [
        {
          "internalType": "address",
          "name": "to",
          "type": "address"
        },
        {
          "internalType": "uint256",
          "name": "amount",
          "type": "uint256"
        }
      ],
      "name": "transfer",
      "outputs": [
        {
          "internalType": "bool",
          "name": "",
          "type": "bool"
        }
      ],
      "stateMutability": "nonpayable",
      "type": "function"
    },
    {
      "inputs": [
        {
          "internalType": "address",
          "name": "from",
          "type": "address"
        },
        {
          "internalType": "address",
          "name": "to",
          "type": "address"
        },
        {
          "internalType": "uint256",
          "name": "amount",
          "type": "uint256"
        }
      ],
      "name": "transferFrom",
      "outputs": [
        {
          "internalType": "bool",
          "name": "",
          "type": "bool"
        }
      ],
      "stateMutability": "nonpayable",
      "type": "function"
    },
    {
      "inputs": [
        {
          "internalType": "address",
          "name": "newOwner",
          "type": "address"
        }
      ],
      "name": "transferOwnership",
      "outputs": [],
      "stateMutability": "nonpayable",
      "type": "function"
    },
    {
      "inputs": [],
      "name": "withdraw",
      "outputs": [],
      "stateMutability": "nonpayable",
      "type": "function"
    }
  ],
  "bytecode": "0x60806040523480156200001157600080fd5b50604051620019623803806200196283398101604081905262000034916200035c565b8851899089906200004d90600390602085019062000203565b5080516200006390600490602084019062000203565b505050620000806200007a620000cc60201b60201c565b620000d0565b6006879055600786905560088590556009849055600a839055600b829055600c819055600e805461ff001916610100179055620000bd3362000122565b5050505050505050506200045a565b3390565b600580546001600160a01b038381166001600160a01b0319831681179093556040519116919082907f8be0079c531659141344cd1fd0a4f28419497f9722a3daafe3b4186f6b6457e090600090a35050565b6200012c620001a5565b6001600160a01b038116620001975760405162461bcd60e51b815260206004820152602660248201527f4f776e61626c653a206e6577206f776e657220697320746865207a65726f206160448201526564647265737360d01b60648201526084015b60405180910390fd5b620001a281620000d0565b50565b6005546001600160a01b03163314620002015760405162461bcd60e51b815260206004820181905260248201527f4f776e61626c653a2063616c6c6572206973206e6f7420746865206f776e657260448201526064016200018e565b565b828054620002119062000407565b90600052602060002090601f01602090048101928262000235576000855562000280565b82601f106200025057805160ff191683800117855562000280565b8280016001018555821562000280579182015b828111156200028057825182559160200191906001019062000263565b506200028e92915062000292565b5090565b5b808211156200028e576000815560010162000293565b600082601f830112620002ba578081fd5b81516001600160401b0380821115620002d757620002d762000444565b604051601f8301601f19908116603f0116810190828211818310171562000302576200030262000444565b816040528381526020925086838588010111156200031e578485fd5b8491505b8382101562000341578582018301518183018401529082019062000322565b838211156200035257848385830101525b9695505050505050565b60008060008060008060008060006101208a8c0312156200037b578485fd5b89516001600160401b038082111562000392578687fd5b620003a08d838e01620002a9565b9a5060208c0151915080821115620003b6578687fd5b50620003c58c828d01620002a9565b98505060408a0151965060608a0151955060808a0151945060a08a0151935060c08a0151925060e08a015191506101008a015190509295985092959850929598565b600181811c908216806200041c57607f821691505b602082108114156200043e57634e487b7160e01b600052602260045260246000fd5b50919050565b634e487b7160e01b600052604160045260246000fd5b6114f8806200046a6000396000f3fe6080604052600436106101cd5760003560e01c8063715018a6116100f7578063a457c2d711610095578063d0e30db011610064578063d0e30db0146104b7578063dd62ed3e146104bf578063f2fde38b146104df578063fb86a404146104ff57600080fd5b8063a457c2d714610436578063a9059cbb14610456578063aeecdc2c14610476578063c8e569a8146104a257600080fd5b80638da5cb5b116100d15780638da5cb5b146103cd578063906a26e0146103f557806395d89b411461040b578063977b055b1461042057600080fd5b8063715018a61461038d57806378e97925146103a25780638c500418146103b857600080fd5b8063313ce5671161016f5780633ccfd60b1161013e5780633ccfd60b14610315578063419759f51461032c5780634e71d92d1461034257806370a082311461035757600080fd5b8063313ce567146102ad5780633197cbb6146102c957806333b5b62e146102df57806339509351146102f557600080fd5b806318160ddd116101ab57806318160ddd1461024357806323b872dd146102625780632c4e722e146102825780632e659d931461029857600080fd5b806302fb0c5e146101d257806306fdde0314610201578063095ea7b314610223575b600080fd5b3480156101de57600080fd5b50600e546101ec9060ff1681565b60405190151581526020015b60405180910390f35b34801561020d57600080fd5b50610216610515565b6040516101f891906113c7565b34801561022f57600080fd5b506101ec61023e366004611376565b6105a7565b34801561024f57600080fd5b506002545b6040519081526020016101f8565b34801561026e57600080fd5b506101ec61027d36600461133b565b6105bf565b34801561028e57600080fd5b5061025460085481565b3480156102a457600080fd5b506102166105e3565b3480156102b957600080fd5b50604051601281526020016101f8565b3480156102d557600080fd5b50610254600c5481565b3480156102eb57600080fd5b5061025460065481565b34801561030157600080fd5b506101ec610310366004611376565b610761565b34801561032157600080fd5b5061032a610783565b005b34801561033857600080fd5b50610254600d5481565b34801561034e57600080fd5b5061032a61085c565b34801561036357600080fd5b506102546103723660046112e8565b6001600160a01b031660009081526020819052604090205490565b34801561039957600080fd5b5061032a61096c565b3480156103ae57600080fd5b50610254600b5481565b3480156103c457600080fd5b50600b54610254565b3480156103d957600080fd5b506005546040516001600160a01b0390911681526020016101f8565b34801561040157600080fd5b5061025460095481565b34801561041757600080fd5b50610216610980565b34801561042c57600080fd5b5061025460075481565b34801561044257600080fd5b506101ec610451366004611376565b61098f565b34801561046257600080fd5b506101ec610471366004611376565b610a0a565b34801561048257600080fd5b50600e5461049590610100900460ff1681565b6040516101f8919061139f565b3480156104ae57600080fd5b5061032a610a18565b61032a610a31565b3480156104cb57600080fd5b506102546104da366004611309565b610c53565b3480156104eb57600080fd5b5061032a6104fa3660046112e8565b610c7e565b34801561050b57600080fd5b50610254600a5481565b60606003805461052490611471565b80601f016020809104026020016040519081016040528092919081815260200182805461055090611471565b801561059d5780601f106105725761010080835404028352916020019161059d565b820191906000526020600020905b81548152906001019060200180831161058057829003601f168201915b5050505050905090565b6000336105b5818585610cf4565b5060019392505050565b6000336105cd858285610e19565b6105d8858585610e93565b506001949350505050565b60606000600e54610100900460ff16600481111561061157634e487b7160e01b600052602160045260246000fd5b141561063d575060408051808201909152600b81526a139bdd0814dd185c9d195960aa1b602082015290565b6001600e54610100900460ff16600481111561066957634e487b7160e01b600052602160045260246000fd5b1415610691575060408051808201909152600781526652756e6e696e6760c81b602082015290565b6002600e54610100900460ff1660048111156106bd57634e487b7160e01b600052602160045260246000fd5b14156106e8575060408051808201909152600a81526911985a5b195908115b9960b21b602082015290565b6003600e54610100900460ff16600481111561071457634e487b7160e01b600052602160045260246000fd5b1415610740575060408051808201909152600b81526a14dd58d8d95cdcc8115b9960aa1b602082015290565b5060408051808201909152600681526512185b1d195960d21b602082015290565b6000336105b58185856107748383610c53565b61077e919061141a565b610cf4565b6003600e54610100900460ff1660048111156107af57634e487b7160e01b600052602160045260246000fd5b1461080d5760405162461bcd60e51b815260206004820152602360248201527f43616e6e6f74207769746864726177207768696c652049434f2069732061637460448201526269766560e81b60648201526084015b60405180910390fd5b476108206005546001600160a01b031690565b6001600160a01b03166108fc829081150290604051600060405180830381858888f19350505050158015610858573d6000803e3d6000fd5b5050565b6002600e54610100900460ff16600481111561088857634e487b7160e01b600052602160045260246000fd5b146108d55760405162461bcd60e51b815260206004820181905260248201527f43616e6e6f7420636c61696d207768696c652049434f206973206163746976656044820152606401610804565b33600090815260208190526040902054806109275760405162461bcd60e51b81526020600482015260126024820152714e6f20746f6b656e7320746f20636c61696d60701b6044820152606401610804565b6109313382611037565b60085433906108fc906109449084611432565b6040518115909202916000818181858888f19350505050158015610858573d6000803e3d6000fd5b610974611161565b61097e60006111bb565b565b60606004805461052490611471565b6000338161099d8286610c53565b9050838110156109fd5760405162461bcd60e51b815260206004820152602560248201527f45524332303a2064656372656173656420616c6c6f77616e63652062656c6f77604482015264207a65726f60d81b6064820152608401610804565b6105d88286868403610cf4565b6000336105b5818585610e93565b610a20611161565b600e805461ff001916610400179055565b6001600e54610100900460ff166004811115610a5d57634e487b7160e01b600052602160045260246000fd5b14610a9b5760405162461bcd60e51b815260206004820152600e60248201526d49434f206e6f742061637469766560901b6044820152606401610804565b600b54421015610aed5760405162461bcd60e51b815260206004820152601760248201527f49434f20686173206e6f742073746172746564207965740000000000000000006044820152606401610804565b600060085434610afd9190611452565b9050600654811015610b605760405162461bcd60e51b815260206004820152602660248201527f416d6f756e742069732062656c6f77206d696e696d756d207075726368617365604482015265081b1a5b5a5d60d21b6064820152608401610804565b600754811115610bc15760405162461bcd60e51b815260206004820152602660248201527f416d6f756e742069732061626f7665206d6178696d756d207075726368617365604482015265081b1a5b5a5d60d21b6064820152608401610804565b610bcb338261120d565b80600d6000828254610bdd919061141a565b9091555050600c5442118015610bf65750600954600d54105b15610c0b57600e805461ff0019166102001790555b600c5442118015610c1f5750600954600d54105b15610c3457600e805461ff0019166103001790555b600a54600d541115610c5057600e805461ff0019166103001790555b50565b6001600160a01b03918216600090815260016020908152604080832093909416825291909152205490565b610c86611161565b6001600160a01b038116610ceb5760405162461bcd60e51b815260206004820152602660248201527f4f776e61626c653a206e6577206f776e657220697320746865207a65726f206160448201526564647265737360d01b6064820152608401610804565b610c50816111bb565b6001600160a01b038316610d565760405162461bcd60e51b8152602060048201526024808201527f45524332303a20617070726f76652066726f6d20746865207a65726f206164646044820152637265737360e01b6064820152608401610804565b6001600160a01b038216610db75760405162461bcd60e51b815260206004820152602260248201527f45524332303a20617070726f766520746f20746865207a65726f206164647265604482015261737360f01b6064820152608401610804565b6001600160a01b0383811660008181526001602090815260408083209487168084529482529182902085905590518481527f8c5be1e5ebec7d5bd14f71427d1e84f3dd0314c0f7b2291e5b200ac8c7c3b92591015b60405180910390a3505050565b6000610e258484610c53565b90506000198114610e8d5781811015610e805760405162461bcd60e51b815260206004820152601d60248201527f45524332303a20696e73756666696369656e7420616c6c6f77616e63650000006044820152606401610804565b610e8d8484848403610cf4565b50505050565b6001600160a01b038316610ef75760405162461bcd60e51b815260206004820152602560248201527f45524332303a207472616e736665722066726f6d20746865207a65726f206164604482015264647265737360d81b6064820152608401610804565b6001600160a01b038216610f595760405162461bcd60e51b815260206004820152602360248201527f45524332303a207472616e7366657220746f20746865207a65726f206164647260448201526265737360e81b6064820152608401610804565b6001600160a01b03831660009081526020819052604090205481811015610fd15760405162461bcd60e51b815260206004820152602660248201527f45524332303a207472616e7366657220616d6f756e7420657863656564732062604482015265616c616e636560d01b6064820152608401610804565b6001600160a01b03848116600081815260208181526040808320878703905593871680835291849020805487019055925185815290927fddf252ad1be2c89b69c2b068fc378daa952ba7f163c4a11628f55a4df523b3ef910160405180910390a3610e8d565b6001600160a01b0382166110975760405162461bcd60e51b815260206004820152602160248201527f45524332303a206275726e2066726f6d20746865207a65726f206164647265736044820152607360f81b6064820152608401610804565b6001600160a01b0382166000908152602081905260409020548181101561110b5760405162461bcd60e51b815260206004820152602260248201527f45524332303a206275726e20616d6f756e7420657863656564732062616c616e604482015261636560f01b6064820152608401610804565b6001600160a01b0383166000818152602081815260408083208686039055600280548790039055518581529192917fddf252ad1be2c89b69c2b068fc378daa952ba7f163c4a11628f55a4df523b3ef9101610e0c565b6005546001600160a01b0316331461097e5760405162461bcd60e51b815260206004820181905260248201527f4f776e61626c653a2063616c6c6572206973206e6f7420746865206f776e65726044820152606401610804565b600580546001600160a01b038381166001600160a01b0319831681179093556040519116919082907f8be0079c531659141344cd1fd0a4f28419497f9722a3daafe3b4186f6b6457e090600090a35050565b6001600160a01b0382166112635760405162461bcd60e51b815260206004820152601f60248201527f45524332303a206d696e7420746f20746865207a65726f2061646472657373006044820152606401610804565b8060026000828254611275919061141a565b90915550506001600160a01b038216600081815260208181526040808320805486019055518481527fddf252ad1be2c89b69c2b068fc378daa952ba7f163c4a11628f55a4df523b3ef910160405180910390a35050565b80356001600160a01b03811681146112e357600080fd5b919050565b6000602082840312156112f9578081fd5b611302826112cc565b9392505050565b6000806040838503121561131b578081fd5b611324836112cc565b9150611332602084016112cc565b90509250929050565b60008060006060848603121561134f578081fd5b611358846112cc565b9250611366602085016112cc565b9150604084013590509250925092565b60008060408385031215611388578182fd5b611391836112cc565b946020939093013593505050565b60208101600583106113c157634e487b7160e01b600052602160045260246000fd5b91905290565b6000602080835283518082850152825b818110156113f3578581018301518582016040015282016113d7565b818111156114045783604083870101525b50601f01601f1916929092016040019392505050565b6000821982111561142d5761142d6114ac565b500190565b60008261144d57634e487b7160e01b81526012600452602481fd5b500490565b600081600019048311821515161561146c5761146c6114ac565b500290565b600181811c9082168061148557607f821691505b602082108114156114a657634e487b7160e01b600052602260045260246000fd5b50919050565b634e487b7160e01b600052601160045260246000fdfea264697066735822122077cd599674c7bf8172b0c51e07e799f7896e3f2e99db4937238ef6c8fe7db67f64736f6c63430008040033",
  "linkReferences": {},
  "deployedLinkReferences": {}
}