{
  "_format": "hh-sol-artifact-1",
  "contractName": "MyICO",
  "sourceName": "contracts/MyICO.sol",
  "abi": [
    {
      "inputs": [
        {
          "internalType": "contract IERC20",
          "name": "_token",
          "type": "address"
        },
        {
          "internalType": "uint256",
          "name": "_rate",
          "type": "uint256"
        },
        {
          "internalType": "uint256",
          "name": "_softCap",
          "type": "uint256"
        },
        {
          "internalType": "uint256",
          "name": "_hardCap",
          "type": "uint256"
        },
        {
          "internalType": "uint256",
          "name": "_startTime",
          "type": "uint256"
        },
        {
          "internalType": "uint256",
          "name": "_endTime",
          "type": "uint256"
        }
      ],
      "stateMutability": "nonpayable",
      "type": "constructor"
    },
    {
      "anonymous": false,
      "inputs": [
        {
          "indexed": true,
          "internalType": "address",
          "name": "previousOwner",
          "type": "address"
        },
        {
          "indexed": true,
          "internalType": "address",
          "name": "newOwner",
          "type": "address"
        }
      ],
      "name": "OwnershipTransferred",
      "type": "event"
    },
    {
      "anonymous": false,
      "inputs": [
        {
          "indexed": true,
          "internalType": "address",
          "name": "claimer",
          "type": "address"
        },
        {
          "indexed": false,
          "internalType": "uint256",
          "name": "amount",
          "type": "uint256"
        }
      ],
      "name": "TokensClaimed",
      "type": "event"
    },
    {
      "anonymous": false,
      "inputs": [
        {
          "indexed": true,
          "internalType": "address",
          "name": "depositor",
          "type": "address"
        },
        {
          "indexed": false,
          "internalType": "uint256",
          "name": "amount",
          "type": "uint256"
        }
      ],
      "name": "TokensDeposited",
      "type": "event"
    },
    {
      "anonymous": false,
      "inputs": [
        {
          "indexed": true,
          "internalType": "address",
          "name": "purchaser",
          "type": "address"
        },
        {
          "indexed": false,
          "internalType": "uint256",
          "name": "amount",
          "type": "uint256"
        }
      ],
      "name": "TokensPurchased",
      "type": "event"
    },
    {
      "anonymous": false,
      "inputs": [
        {
          "indexed": true,
          "internalType": "address",
          "name": "withdrawer",
          "type": "address"
        },
        {
          "indexed": false,
          "internalType": "uint256",
          "name": "amount",
          "type": "uint256"
        }
      ],
      "name": "TokensWithdrawn",
      "type": "event"
    },
    {
      "inputs": [],
      "name": "active",
      "outputs": [
        {
          "internalType": "bool",
          "name": "",
          "type": "bool"
        }
      ],
      "stateMutability": "view",
      "type": "function"
    },
    {
      "inputs": [
        {
          "internalType": "address",
          "name": "",
          "type": "address"
        }
      ],
      "name": "balances",
      "outputs": [
        {
          "internalType": "uint256",
          "name": "",
          "type": "uint256"
        }
      ],
      "stateMutability": "view",
      "type": "function"
    },
    {
      "inputs": [],
      "name": "buyTokens",
      "outputs": [],
      "stateMutability": "payable",
      "type": "function"
    },
    {
      "inputs": [],
      "name": "claimTokens",
      "outputs": [],
      "stateMutability": "nonpayable",
      "type": "function"
    },
    {
      "inputs": [
        {
          "internalType": "address",
          "name": "",
          "type": "address"
        }
      ],
      "name": "claimed",
      "outputs": [
        {
          "internalType": "bool",
          "name": "",
          "type": "bool"
        }
      ],
      "stateMutability": "view",
      "type": "function"
    },
    {
      "inputs": [],
      "name": "deposit",
      "outputs": [],
      "stateMutability": "payable",
      "type": "function"
    },
    {
      "inputs": [],
      "name": "endTime",
      "outputs": [
        {
          "internalType": "uint256",
          "name": "",
          "type": "uint256"
        }
      ],
      "stateMutability": "view",
      "type": "function"
    },
    {
      "inputs": [],
      "name": "hardCap",
      "outputs": [
        {
          "internalType": "uint256",
          "name": "",
          "type": "uint256"
        }
      ],
      "stateMutability": "view",
      "type": "function"
    },
    {
      "inputs": [],
      "name": "owner",
      "outputs": [
        {
          "internalType": "address",
          "name": "",
          "type": "address"
        }
      ],
      "stateMutability": "view",
      "type": "function"
    },
    {
      "inputs": [],
      "name": "rate",
      "outputs": [
        {
          "internalType": "uint256",
          "name": "",
          "type": "uint256"
        }
      ],
      "stateMutability": "view",
      "type": "function"
    },
    {
      "inputs": [],
      "name": "renounceOwnership",
      "outputs": [],
      "stateMutability": "nonpayable",
      "type": "function"
    },
    {
      "inputs": [
        {
          "internalType": "bool",
          "name": "_active",
          "type": "bool"
        }
      ],
      "name": "setActive",
      "outputs": [],
      "stateMutability": "nonpayable",
      "type": "function"
    },
    {
      "inputs": [],
      "name": "softCap",
      "outputs": [
        {
          "internalType": "uint256",
          "name": "",
          "type": "uint256"
        }
      ],
      "stateMutability": "view",
      "type": "function"
    },
    {
      "inputs": [],
      "name": "startTime",
      "outputs": [
        {
          "internalType": "uint256",
          "name": "",
          "type": "uint256"
        }
      ],
      "stateMutability": "view",
      "type": "function"
    },
    {
      "inputs": [],
      "name": "token",
      "outputs": [
        {
          "internalType": "contract IERC20",
          "name": "",
          "type": "address"
        }
      ],
      "stateMutability": "view",
      "type": "function"
    },
    {
      "inputs": [
        {
          "internalType": "address",
          "name": "newOwner",
          "type": "address"
        }
      ],
      "name": "transferOwnership",
      "outputs": [],
      "stateMutability": "nonpayable",
      "type": "function"
    },
    {
      "inputs": [
        {
          "internalType": "uint256",
          "name": "amount",
          "type": "uint256"
        }
      ],
      "name": "withdraw",
      "outputs": [],
      "stateMutability": "nonpayable",
      "type": "function"
    }
  ],
  "bytecode": "0x60806040523480156200001157600080fd5b5060405162001bf138038062001bf1833981810160405281019062000037919062000221565b620000576200004b6200012760201b60201c565b6200012f60201b60201c565b8181116200009c576040517f08c379a00000000000000000000000000000000000000000000000000000000081526004016200009390620002de565b60405180910390fd5b85600160006101000a81548173ffffffffffffffffffffffffffffffffffffffff021916908373ffffffffffffffffffffffffffffffffffffffff16021790555084600281905550836003819055508260048190555081600581905550806006819055506000600760006101000a81548160ff021916908315150217905550505050505050620003c0565b600033905090565b60008060009054906101000a900473ffffffffffffffffffffffffffffffffffffffff169050816000806101000a81548173ffffffffffffffffffffffffffffffffffffffff021916908373ffffffffffffffffffffffffffffffffffffffff1602179055508173ffffffffffffffffffffffffffffffffffffffff168173ffffffffffffffffffffffffffffffffffffffff167f8be0079c531659141344cd1fd0a4f28419497f9722a3daafe3b4186f6b6457e060405160405180910390a35050565b60008151905062000204816200038c565b92915050565b6000815190506200021b81620003a6565b92915050565b60008060008060008060c087890312156200023b57600080fd5b60006200024b89828a01620001f3565b96505060206200025e89828a016200020a565b95505060406200027189828a016200020a565b94505060606200028489828a016200020a565b93505060806200029789828a016200020a565b92505060a0620002aa89828a016200020a565b9150509295509295509295565b6000620002c660108362000300565b9150620002d38262000363565b602082019050919050565b60006020820190508181036000830152620002f981620002b7565b9050919050565b600082825260208201905092915050565b60006200031e8262000339565b9050919050565b6000620003328262000311565b9050919050565b600073ffffffffffffffffffffffffffffffffffffffff82169050919050565b6000819050919050565b7f496e76616c696420656e642074696d6500000000000000000000000000000000600082015250565b620003978162000325565b8114620003a357600080fd5b50565b620003b18162000359565b8114620003bd57600080fd5b50565b61182180620003d06000396000f3fe6080604052600436106100fe5760003560e01c80638da5cb5b11610095578063d0e30db011610064578063d0e30db0146102ff578063d0febe4c14610309578063f2fde38b14610313578063fb86a4041461033c578063fc0c546a14610367576100fe565b80638da5cb5b14610243578063906a26e01461026e578063acec338a14610299578063c884ef83146102c2576100fe565b80633197cbb6116100d15780633197cbb6146101bf57806348c54b9d146101ea578063715018a61461020157806378e9792514610218576100fe565b806302fb0c5e1461010357806327e235e31461012e5780632c4e722e1461016b5780632e1a7d4d14610196575b600080fd5b34801561010f57600080fd5b50610118610392565b6040516101259190611256565b60405180910390f35b34801561013a57600080fd5b5061015560048036038101906101509190610fb1565b6103a5565b60405161016291906113ec565b60405180910390f35b34801561017757600080fd5b506101806103bd565b60405161018d91906113ec565b60405180910390f35b3480156101a257600080fd5b506101bd60048036038101906101b8919061102c565b6103c3565b005b3480156101cb57600080fd5b506101d4610583565b6040516101e191906113ec565b60405180910390f35b3480156101f657600080fd5b506101ff610589565b005b34801561020d57600080fd5b50610216610810565b005b34801561022457600080fd5b5061022d610824565b60405161023a91906113ec565b60405180910390f35b34801561024f57600080fd5b5061025861082a565b6040516102659190611212565b60405180910390f35b34801561027a57600080fd5b50610283610853565b60405161029091906113ec565b60405180910390f35b3480156102a557600080fd5b506102c060048036038101906102bb9190610fda565b610859565b005b3480156102ce57600080fd5b506102e960048036038101906102e49190610fb1565b61087e565b6040516102f69190611256565b60405180910390f35b61030761089e565b005b6103116109d7565b005b34801561031f57600080fd5b5061033a60048036038101906103359190610fb1565b610d63565b005b34801561034857600080fd5b50610351610de7565b60405161035e91906113ec565b60405180910390f35b34801561037357600080fd5b5061037c610ded565b6040516103899190611271565b60405180910390f35b600760009054906101000a900460ff1681565b60086020528060005260406000206000915090505481565b60025481565b600760009054906101000a900460ff1615610413576040517f08c379a000000000000000000000000000000000000000000000000000000000815260040161040a906113cc565b60405180910390fd5b80600860003373ffffffffffffffffffffffffffffffffffffffff1673ffffffffffffffffffffffffffffffffffffffff168152602001908152602001600020541015610495576040517f08c379a000000000000000000000000000000000000000000000000000000000815260040161048c9061130c565b60405180910390fd5b80600860003373ffffffffffffffffffffffffffffffffffffffff1673ffffffffffffffffffffffffffffffffffffffff16815260200190815260200160002060008282546104e491906114c8565b925050819055503373ffffffffffffffffffffffffffffffffffffffff166108fc829081150290604051600060405180830381858888f19350505050158015610531573d6000803e3d6000fd5b503373ffffffffffffffffffffffffffffffffffffffff167f6352c5382c4a4578e712449ca65e83cdb392d045dfcf1cad9615189db2da244b8260405161057891906113ec565b60405180910390a250565b60065481565b600760009054906101000a900460ff16156105d9576040517f08c379a00000000000000000000000000000000000000000000000000000000081526004016105d09061132c565b60405180910390fd5b600960003373ffffffffffffffffffffffffffffffffffffffff1673ffffffffffffffffffffffffffffffffffffffff16815260200190815260200160002060009054906101000a900460ff1615610666576040517f08c379a000000000000000000000000000000000000000000000000000000000815260040161065d906113ac565b60405180910390fd5b6000600254600860003373ffffffffffffffffffffffffffffffffffffffff1673ffffffffffffffffffffffffffffffffffffffff168152602001908152602001600020546106b5919061146e565b9050600160009054906101000a900473ffffffffffffffffffffffffffffffffffffffff1673ffffffffffffffffffffffffffffffffffffffff1663a9059cbb33836040518363ffffffff1660e01b815260040161071492919061122d565b602060405180830381600087803b15801561072e57600080fd5b505af1158015610742573d6000803e3d6000fd5b505050506040513d601f19601f820116820180604052508101906107669190611003565b506001600960003373ffffffffffffffffffffffffffffffffffffffff1673ffffffffffffffffffffffffffffffffffffffff16815260200190815260200160002060006101000a81548160ff0219169083151502179055503373ffffffffffffffffffffffffffffffffffffffff167f896e034966eaaf1adc54acc0f257056febbd300c9e47182cf761982cf1f5e4308260405161080591906113ec565b60405180910390a250565b610818610e13565b6108226000610e91565b565b60055481565b60008060009054906101000a900473ffffffffffffffffffffffffffffffffffffffff16905090565b60035481565b610861610e13565b80600760006101000a81548160ff02191690831515021790555050565b60096020528060005260406000206000915054906101000a900460ff1681565b600760009054906101000a900460ff166108ed576040517f08c379a00000000000000000000000000000000000000000000000000000000081526004016108e4906112cc565b60405180910390fd5b6006544210610931576040517f08c379a0000000000000000000000000000000000000000000000000000000008152600401610928906112ec565b60405180910390fd5b34600860003373ffffffffffffffffffffffffffffffffffffffff1673ffffffffffffffffffffffffffffffffffffffff16815260200190815260200160002060008282546109809190611418565b925050819055503373ffffffffffffffffffffffffffffffffffffffff167f59062170a285eb80e8c6b8ced60428442a51910635005233fc4ce084a475845e346040516109cd91906113ec565b60405180910390a2565b600760009054906101000a900460ff16610a26576040517f08c379a0000000000000000000000000000000000000000000000000000000008152600401610a1d906112cc565b60405180910390fd5b600554421015610a6b576040517f08c379a0000000000000000000000000000000000000000000000000000000008152600401610a629061134c565b60405180910390fd5b600654421115610ab0576040517f08c379a0000000000000000000000000000000000000000000000000000000008152600401610aa7906112ec565b60405180910390fd5b66038d7ea4c68000600254610ac5919061146e565b341015610b07576040517f08c379a0000000000000000000000000000000000000000000000000000000008152600401610afe9061128c565b60405180910390fd5b60045434600860003373ffffffffffffffffffffffffffffffffffffffff1673ffffffffffffffffffffffffffffffffffffffff16815260200190815260200160002054610b559190611418565b1115610b96576040517f08c379a0000000000000000000000000000000000000000000000000000000008152600401610b8d9061136c565b60405180910390fd5b600060025434610ba6919061146e565b9050600160009054906101000a900473ffffffffffffffffffffffffffffffffffffffff1673ffffffffffffffffffffffffffffffffffffffff1663a9059cbb33836040518363ffffffff1660e01b8152600401610c0592919061122d565b602060405180830381600087803b158015610c1f57600080fd5b505af1158015610c33573d6000803e3d6000fd5b505050506040513d601f19601f82011682018060405250810190610c579190611003565b5034600860003373ffffffffffffffffffffffffffffffffffffffff1673ffffffffffffffffffffffffffffffffffffffff1681526020019081526020016000206000828254610ca79190611418565b925050819055503373ffffffffffffffffffffffffffffffffffffffff167f8f28852646c20cc973d3a8218f7eefed58c25c909f78f0265af4818c3d4dc27182604051610cf491906113ec565b60405180910390a2600354600860003373ffffffffffffffffffffffffffffffffffffffff1673ffffffffffffffffffffffffffffffffffffffff1681526020019081526020016000205410610d60576000600760006101000a81548160ff0219169083151502179055505b50565b610d6b610e13565b600073ffffffffffffffffffffffffffffffffffffffff168173ffffffffffffffffffffffffffffffffffffffff161415610ddb576040517f08c379a0000000000000000000000000000000000000000000000000000000008152600401610dd2906112ac565b60405180910390fd5b610de481610e91565b50565b60045481565b600160009054906101000a900473ffffffffffffffffffffffffffffffffffffffff1681565b610e1b610f55565b73ffffffffffffffffffffffffffffffffffffffff16610e3961082a565b73ffffffffffffffffffffffffffffffffffffffff1614610e8f576040517f08c379a0000000000000000000000000000000000000000000000000000000008152600401610e869061138c565b60405180910390fd5b565b60008060009054906101000a900473ffffffffffffffffffffffffffffffffffffffff169050816000806101000a81548173ffffffffffffffffffffffffffffffffffffffff021916908373ffffffffffffffffffffffffffffffffffffffff1602179055508173ffffffffffffffffffffffffffffffffffffffff168173ffffffffffffffffffffffffffffffffffffffff167f8be0079c531659141344cd1fd0a4f28419497f9722a3daafe3b4186f6b6457e060405160405180910390a35050565b600033905090565b600081359050610f6c816117a6565b92915050565b600081359050610f81816117bd565b92915050565b600081519050610f96816117bd565b92915050565b600081359050610fab816117d4565b92915050565b600060208284031215610fc357600080fd5b6000610fd184828501610f5d565b91505092915050565b600060208284031215610fec57600080fd5b6000610ffa84828501610f72565b91505092915050565b60006020828403121561101557600080fd5b600061102384828501610f87565b91505092915050565b60006020828403121561103e57600080fd5b600061104c84828501610f9c565b91505092915050565b61105e816114fc565b82525050565b61106d8161150e565b82525050565b61107c81611544565b82525050565b600061108f602383611407565b915061109a82611597565b604082019050919050565b60006110b2602683611407565b91506110bd826115e6565b604082019050919050565b60006110d5601183611407565b91506110e082611635565b602082019050919050565b60006110f8600d83611407565b91506111038261165e565b602082019050919050565b600061111b601483611407565b915061112682611687565b602082019050919050565b600061113e601c83611407565b9150611149826116b0565b602082019050919050565b6000611161601783611407565b915061116c826116d9565b602082019050919050565b6000611184602083611407565b915061118f82611702565b602082019050919050565b60006111a7602083611407565b91506111b28261172b565b602082019050919050565b60006111ca601683611407565b91506111d582611754565b602082019050919050565b60006111ed601f83611407565b91506111f88261177d565b602082019050919050565b61120c8161153a565b82525050565b60006020820190506112276000830184611055565b92915050565b60006040820190506112426000830185611055565b61124f6020830184611203565b9392505050565b600060208201905061126b6000830184611064565b92915050565b60006020820190506112866000830184611073565b92915050565b600060208201905081810360008301526112a581611082565b9050919050565b600060208201905081810360008301526112c5816110a5565b9050919050565b600060208201905081810360008301526112e5816110c8565b9050919050565b60006020820190508181036000830152611305816110eb565b9050919050565b600060208201905081810360008301526113258161110e565b9050919050565b6000602082019050818103600083015261134581611131565b9050919050565b6000602082019050818103600083015261136581611154565b9050919050565b6000602082019050818103600083015261138581611177565b9050919050565b600060208201905081810360008301526113a58161119a565b9050919050565b600060208201905081810360008301526113c5816111bd565b9050919050565b600060208201905081810360008301526113e5816111e0565b9050919050565b60006020820190506114016000830184611203565b92915050565b600082825260208201905092915050565b60006114238261153a565b915061142e8361153a565b9250827fffffffffffffffffffffffffffffffffffffffffffffffffffffffffffffffff0382111561146357611462611568565b5b828201905092915050565b60006114798261153a565b91506114848361153a565b9250817fffffffffffffffffffffffffffffffffffffffffffffffffffffffffffffffff04831182151516156114bd576114bc611568565b5b828202905092915050565b60006114d38261153a565b91506114de8361153a565b9250828210156114f1576114f0611568565b5b828203905092915050565b60006115078261151a565b9050919050565b60008115159050919050565b600073ffffffffffffffffffffffffffffffffffffffff82169050919050565b6000819050919050565b600061154f82611556565b9050919050565b60006115618261151a565b9050919050565b7f4e487b7100000000000000000000000000000000000000000000000000000000600052601160045260246000fd5b7f4d696e696d756d20707572636861736520616d6f756e74206e6f74207265616360008201527f6865640000000000000000000000000000000000000000000000000000000000602082015250565b7f4f776e61626c653a206e6577206f776e657220697320746865207a65726f206160008201527f6464726573730000000000000000000000000000000000000000000000000000602082015250565b7f49434f206973206e6f7420616374697665000000000000000000000000000000600082015250565b7f49434f2068617320656e64656400000000000000000000000000000000000000600082015250565b7f496e73756666696369656e742062616c616e6365000000000000000000000000600082015250565b7f43616e6e6f7420636c61696d206265666f72652049434f20656e647300000000600082015250565b7f49434f20686173206e6f74207374617274656420796574000000000000000000600082015250565b7f507572636861736520616d6f756e742065786365656473206861726420636170600082015250565b7f4f776e61626c653a2063616c6c6572206973206e6f7420746865206f776e6572600082015250565b7f546f6b656e7320616c726561647920636c61696d656400000000000000000000600082015250565b7f43616e6e6f74207769746864726177206265666f72652049434f20656e647300600082015250565b6117af816114fc565b81146117ba57600080fd5b50565b6117c68161150e565b81146117d157600080fd5b50565b6117dd8161153a565b81146117e857600080fd5b5056fea2646970667358221220dc13f29293bb7eac6f13448f185d470bb61cc31e3ee8d7625f14a0571f9199a564736f6c63430008040033",
  "linkReferences": {},
  "deployedLinkReferences": {}
}